{
  "_format": "hh-sol-artifact-1",
  "contractName": "OmniChainNFT",
  "sourceName": "contracts/OmniChainNFT.sol",
  "abi": [
    {
      "inputs": [
        {
          "internalType": "address",
          "name": "_endpoint",
          "type": "address"
        },
        {
          "internalType": "uint256",
          "name": "startId",
          "type": "uint256"
        },
        {
          "internalType": "uint256",
          "name": "_max",
          "type": "uint256"
        }
      ],
      "stateMutability": "nonpayable",
      "type": "constructor"
    },
    {
      "anonymous": false,
      "inputs": [
        {
          "indexed": true,
          "internalType": "address",
          "name": "owner",
          "type": "address"
        },
        {
          "indexed": true,
          "internalType": "address",
          "name": "approved",
          "type": "address"
        },
        {
          "indexed": true,
          "internalType": "uint256",
          "name": "tokenId",
          "type": "uint256"
        }
      ],
      "name": "Approval",
      "type": "event"
    },
    {
      "anonymous": false,
      "inputs": [
        {
          "indexed": true,
          "internalType": "address",
          "name": "owner",
          "type": "address"
        },
        {
          "indexed": true,
          "internalType": "address",
          "name": "operator",
          "type": "address"
        },
        {
          "indexed": false,
          "internalType": "bool",
          "name": "approved",
          "type": "bool"
        }
      ],
      "name": "ApprovalForAll",
      "type": "event"
    },
    {
      "anonymous": false,
      "inputs": [
        {
          "indexed": true,
          "internalType": "address",
          "name": "previousOwner",
          "type": "address"
        },
        {
          "indexed": true,
          "internalType": "address",
          "name": "newOwner",
          "type": "address"
        }
      ],
      "name": "OwnershipTransferred",
      "type": "event"
    },
    {
      "anonymous": false,
      "inputs": [
        {
          "indexed": false,
          "internalType": "uint16",
          "name": "_srcChainId",
          "type": "uint16"
        },
        {
          "indexed": false,
          "internalType": "address",
          "name": "_from",
          "type": "address"
        },
        {
          "indexed": false,
          "internalType": "uint256",
          "name": "_tokenId",
          "type": "uint256"
        },
        {
          "indexed": false,
          "internalType": "uint256",
          "name": "counter",
          "type": "uint256"
        }
      ],
      "name": "ReceiveNFT",
      "type": "event"
    },
    {
      "anonymous": false,
      "inputs": [
        {
          "indexed": true,
          "internalType": "address",
          "name": "from",
          "type": "address"
        },
        {
          "indexed": true,
          "internalType": "address",
          "name": "to",
          "type": "address"
        },
        {
          "indexed": true,
          "internalType": "uint256",
          "name": "tokenId",
          "type": "uint256"
        }
      ],
      "name": "Transfer",
      "type": "event"
    },
    {
      "inputs": [
        {
          "internalType": "address",
          "name": "to",
          "type": "address"
        },
        {
          "internalType": "uint256",
          "name": "tokenId",
          "type": "uint256"
        }
      ],
      "name": "approve",
      "outputs": [],
      "stateMutability": "nonpayable",
      "type": "function"
    },
    {
      "inputs": [
        {
          "internalType": "address",
          "name": "owner",
          "type": "address"
        }
      ],
      "name": "balanceOf",
      "outputs": [
        {
          "internalType": "uint256",
          "name": "",
          "type": "uint256"
        }
      ],
      "stateMutability": "view",
      "type": "function"
    },
    {
      "inputs": [
        {
          "internalType": "uint16",
          "name": "_dstChainId",
          "type": "uint16"
        },
        {
          "internalType": "bytes",
          "name": "_destination",
          "type": "bytes"
        },
        {
          "internalType": "uint256",
          "name": "tokenId",
          "type": "uint256"
        }
      ],
      "name": "crossChain",
      "outputs": [],
      "stateMutability": "payable",
      "type": "function"
    },
    {
      "inputs": [],
      "name": "endpoint",
      "outputs": [
        {
          "internalType": "contract ILayerZeroEndpoint",
          "name": "",
          "type": "address"
        }
      ],
      "stateMutability": "view",
      "type": "function"
    },
    {
      "inputs": [
        {
          "internalType": "uint16",
          "name": "_dstChainId",
          "type": "uint16"
        },
        {
          "internalType": "address",
          "name": "_userApplication",
          "type": "address"
        },
        {
          "internalType": "bytes",
          "name": "_payload",
          "type": "bytes"
        },
        {
          "internalType": "bool",
          "name": "_payInZRO",
          "type": "bool"
        },
        {
          "internalType": "bytes",
          "name": "_adapterParams",
          "type": "bytes"
        }
      ],
      "name": "estimateFees",
      "outputs": [
        {
          "internalType": "uint256",
          "name": "nativeFee",
          "type": "uint256"
        },
        {
          "internalType": "uint256",
          "name": "zroFee",
          "type": "uint256"
        }
      ],
      "stateMutability": "view",
      "type": "function"
    },
    {
      "inputs": [
        {
          "internalType": "uint256",
          "name": "tokenId",
          "type": "uint256"
        }
      ],
      "name": "getApproved",
      "outputs": [
        {
          "internalType": "address",
          "name": "",
          "type": "address"
        }
      ],
      "stateMutability": "view",
      "type": "function"
    },
    {
      "inputs": [
        {
          "internalType": "address",
          "name": "owner",
          "type": "address"
        },
        {
          "internalType": "address",
          "name": "operator",
          "type": "address"
        }
      ],
      "name": "isApprovedForAll",
      "outputs": [
        {
          "internalType": "bool",
          "name": "",
          "type": "bool"
        }
      ],
      "stateMutability": "view",
      "type": "function"
    },
    {
      "inputs": [
        {
          "internalType": "uint16",
          "name": "_srcChainId",
          "type": "uint16"
        },
        {
          "internalType": "bytes",
          "name": "_from",
          "type": "bytes"
        },
        {
          "internalType": "uint64",
          "name": "",
          "type": "uint64"
        },
        {
          "internalType": "bytes",
          "name": "_payload",
          "type": "bytes"
        }
      ],
      "name": "lzReceive",
      "outputs": [],
      "stateMutability": "nonpayable",
      "type": "function"
    },
    {
      "inputs": [],
      "name": "mint",
      "outputs": [],
      "stateMutability": "payable",
      "type": "function"
    },
    {
      "inputs": [],
      "name": "name",
      "outputs": [
        {
          "internalType": "string",
          "name": "",
          "type": "string"
        }
      ],
      "stateMutability": "view",
      "type": "function"
    },
    {
      "inputs": [],
      "name": "owner",
      "outputs": [
        {
          "internalType": "address",
          "name": "",
          "type": "address"
        }
      ],
      "stateMutability": "view",
      "type": "function"
    },
    {
      "inputs": [
        {
          "internalType": "uint256",
          "name": "tokenId",
          "type": "uint256"
        }
      ],
      "name": "ownerOf",
      "outputs": [
        {
          "internalType": "address",
          "name": "",
          "type": "address"
        }
      ],
      "stateMutability": "view",
      "type": "function"
    },
    {
      "inputs": [],
      "name": "renounceOwnership",
      "outputs": [],
      "stateMutability": "nonpayable",
      "type": "function"
    },
    {
      "inputs": [
        {
          "internalType": "address",
          "name": "from",
          "type": "address"
        },
        {
          "internalType": "address",
          "name": "to",
          "type": "address"
        },
        {
          "internalType": "uint256",
          "name": "tokenId",
          "type": "uint256"
        }
      ],
      "name": "safeTransferFrom",
      "outputs": [],
      "stateMutability": "nonpayable",
      "type": "function"
    },
    {
      "inputs": [
        {
          "internalType": "address",
          "name": "from",
          "type": "address"
        },
        {
          "internalType": "address",
          "name": "to",
          "type": "address"
        },
        {
          "internalType": "uint256",
          "name": "tokenId",
          "type": "uint256"
        },
        {
          "internalType": "bytes",
          "name": "data",
          "type": "bytes"
        }
      ],
      "name": "safeTransferFrom",
      "outputs": [],
      "stateMutability": "nonpayable",
      "type": "function"
    },
    {
      "inputs": [
        {
          "internalType": "address",
          "name": "operator",
          "type": "address"
        },
        {
          "internalType": "bool",
          "name": "approved",
          "type": "bool"
        }
      ],
      "name": "setApprovalForAll",
      "outputs": [],
      "stateMutability": "nonpayable",
      "type": "function"
    },
    {
      "inputs": [
        {
          "internalType": "bytes4",
          "name": "interfaceId",
          "type": "bytes4"
        }
      ],
      "name": "supportsInterface",
      "outputs": [
        {
          "internalType": "bool",
          "name": "",
          "type": "bool"
        }
      ],
      "stateMutability": "view",
      "type": "function"
    },
    {
      "inputs": [],
      "name": "symbol",
      "outputs": [
        {
          "internalType": "string",
          "name": "",
          "type": "string"
        }
      ],
      "stateMutability": "view",
      "type": "function"
    },
    {
      "inputs": [
        {
          "internalType": "uint256",
          "name": "tokenId",
          "type": "uint256"
        }
      ],
      "name": "tokenURI",
      "outputs": [
        {
          "internalType": "string",
          "name": "",
          "type": "string"
        }
      ],
      "stateMutability": "view",
      "type": "function"
    },
    {
      "inputs": [
        {
          "internalType": "address",
          "name": "from",
          "type": "address"
        },
        {
          "internalType": "address",
          "name": "to",
          "type": "address"
        },
        {
          "internalType": "uint256",
          "name": "tokenId",
          "type": "uint256"
        }
      ],
      "name": "transferFrom",
      "outputs": [],
      "stateMutability": "nonpayable",
      "type": "function"
    },
    {
      "inputs": [
        {
          "internalType": "address",
          "name": "newOwner",
          "type": "address"
        }
      ],
      "name": "transferOwnership",
      "outputs": [],
      "stateMutability": "nonpayable",
      "type": "function"
    }
  ],
  "bytecode": "0x608060405260006007556000600855606460095562055730600a553480156200002757600080fd5b5060405162003c4038038062003c4083398181016040528101906200004d91906200030f565b6040518060400160405280600c81526020017f4f6d6e69436861696e4e465400000000000000000000000000000000000000008152506040518060400160405280600781526020017f4f4f43434e465400000000000000000000000000000000000000000000000000815250620000d9620000cd6200016560201b60201c565b6200016d60201b60201c565b8160019080519060200190620000f192919062000231565b5080600290805190602001906200010a92919062000231565b50505082600b60006101000a81548173ffffffffffffffffffffffffffffffffffffffff021916908373ffffffffffffffffffffffffffffffffffffffff160217905550816008819055508060098190555050505062000447565b600033905090565b60008060009054906101000a900473ffffffffffffffffffffffffffffffffffffffff169050816000806101000a81548173ffffffffffffffffffffffffffffffffffffffff021916908373ffffffffffffffffffffffffffffffffffffffff1602179055508173ffffffffffffffffffffffffffffffffffffffff168173ffffffffffffffffffffffffffffffffffffffff167f8be0079c531659141344cd1fd0a4f28419497f9722a3daafe3b4186f6b6457e060405160405180910390a35050565b8280546200023f90620003a9565b90600052602060002090601f016020900481019282620002635760008555620002af565b82601f106200027e57805160ff1916838001178555620002af565b82800160010185558215620002af579182015b82811115620002ae57825182559160200191906001019062000291565b5b509050620002be9190620002c2565b5090565b5b80821115620002dd576000816000905550600101620002c3565b5090565b600081519050620002f28162000413565b92915050565b60008151905062000309816200042d565b92915050565b6000806000606084860312156200032b576200032a6200040e565b5b60006200033b86828701620002e1565b93505060206200034e86828701620002f8565b92505060406200036186828701620002f8565b9150509250925092565b600062000378826200037f565b9050919050565b600073ffffffffffffffffffffffffffffffffffffffff82169050919050565b6000819050919050565b60006002820490506001821680620003c257607f821691505b60208210811415620003d957620003d8620003df565b5b50919050565b7f4e487b7100000000000000000000000000000000000000000000000000000000600052602260045260246000fd5b600080fd5b6200041e816200036b565b81146200042a57600080fd5b50565b62000438816200039f565b81146200044457600080fd5b50565b6137e980620004576000396000f3fe6080604052600436106101295760003560e01c80636352211e116100ab578063a22cb4651161006f578063a22cb465146103d1578063b88d4fde146103fa578063baf1639e14610423578063c87b56dd1461043f578063e985e9c51461047c578063f2fde38b146104b957610129565b80636352211e146102ea57806370a0823114610327578063715018a6146103645780638da5cb5b1461037b57806395d89b41146103a657610129565b80631249c58b116100f25780631249c58b1461022557806323b872dd1461022f57806340a7bb101461025857806342842e0e146102965780635e280f11146102bf57610129565b80621d35671461012e57806301ffc9a71461015757806306fdde0314610194578063081812fc146101bf578063095ea7b3146101fc575b600080fd5b34801561013a57600080fd5b5061015560048036038101906101509190612505565b6104e2565b005b34801561016357600080fd5b5061017e6004803603810190610179919061237b565b6105cc565b60405161018b9190612a79565b60405180910390f35b3480156101a057600080fd5b506101a96106ae565b6040516101b69190612aaf565b60405180910390f35b3480156101cb57600080fd5b506101e660048036038101906101e191906125a4565b610740565b6040516101f391906129e9565b60405180910390f35b34801561020857600080fd5b50610223600480360381019061021e919061233b565b610786565b005b61022d61089e565b005b34801561023b57600080fd5b5061025660048036038101906102519190612225565b610933565b005b34801561026457600080fd5b5061027f600480360381019061027a91906123d5565b610993565b60405161028d929190612e6f565b60405180910390f35b3480156102a257600080fd5b506102bd60048036038101906102b89190612225565b610a5c565b005b3480156102cb57600080fd5b506102d4610a7c565b6040516102e19190612a94565b60405180910390f35b3480156102f657600080fd5b50610311600480360381019061030c91906125a4565b610aa2565b60405161031e91906129e9565b60405180910390f35b34801561033357600080fd5b5061034e60048036038101906103499190612178565b610b54565b60405161035b9190612e54565b60405180910390f35b34801561037057600080fd5b50610379610c0c565b005b34801561038757600080fd5b50610390610c20565b60405161039d91906129e9565b60405180910390f35b3480156103b257600080fd5b506103bb610c49565b6040516103c89190612aaf565b60405180910390f35b3480156103dd57600080fd5b506103f860048036038101906103f391906122fb565b610cdb565b005b34801561040657600080fd5b50610421600480360381019061041c9190612278565b610cf1565b005b61043d60048036038101906104389190612491565b610d53565b005b34801561044b57600080fd5b50610466600480360381019061046191906125a4565b610fe0565b6040516104739190612aaf565b60405180910390f35b34801561048857600080fd5b506104a3600480360381019061049e91906121e5565b611048565b6040516104b09190612a79565b60405180910390f35b3480156104c557600080fd5b506104e060048036038101906104db9190612178565b6110dc565b005b600b60009054906101000a900473ffffffffffffffffffffffffffffffffffffffff1673ffffffffffffffffffffffffffffffffffffffff163373ffffffffffffffffffffffffffffffffffffffff161461053c57600080fd5b6000601484015190506000808380602001905181019061055c91906121a5565b9150915061056a8282611160565b60016007600082825461057d9190612f31565b925050819055507fec16668a9529c4fc256054f3e18620ef50c89aec357376cce821207ff1e656f08783836007546040516105bb9493929190612d97565b60405180910390a150505050505050565b60007f80ac58cd000000000000000000000000000000000000000000000000000000007bffffffffffffffffffffffffffffffffffffffffffffffffffffffff1916827bffffffffffffffffffffffffffffffffffffffffffffffffffffffff1916148061069757507f5b5e139f000000000000000000000000000000000000000000000000000000007bffffffffffffffffffffffffffffffffffffffffffffffffffffffff1916827bffffffffffffffffffffffffffffffffffffffffffffffffffffffff1916145b806106a757506106a68261117e565b5b9050919050565b6060600180546106bd9061310c565b80601f01602080910402602001604051908101604052809291908181526020018280546106e99061310c565b80156107365780601f1061070b57610100808354040283529160200191610736565b820191906000526020600020905b81548152906001019060200180831161071957829003601f168201915b5050505050905090565b600061074b826111e8565b6005600083815260200190815260200160002060009054906101000a900473ffffffffffffffffffffffffffffffffffffffff169050919050565b600061079182610aa2565b90508073ffffffffffffffffffffffffffffffffffffffff168373ffffffffffffffffffffffffffffffffffffffff161415610802576040517f08c379a00000000000000000000000000000000000000000000000000000000081526004016107f990612c91565b60405180910390fd5b8073ffffffffffffffffffffffffffffffffffffffff16610821611233565b73ffffffffffffffffffffffffffffffffffffffff161480610850575061084f8161084a611233565b611048565b5b61088f576040517f08c379a000000000000000000000000000000000000000000000000000000000815260040161088690612c11565b60405180910390fd5b610899838361123b565b505050565b60095460016008546108b09190612f31565b11156108f1576040517f08c379a00000000000000000000000000000000000000000000000000000000081526004016108e890612ad1565b60405180910390fd5b6001600860008282546109049190612f31565b9250508190555061091733600854611160565b60016007600082825461092a9190612f31565b92505081905550565b61094461093e611233565b826112f4565b610983576040517f08c379a000000000000000000000000000000000000000000000000000000000815260040161097a90612cb1565b60405180910390fd5b61098e838383611389565b505050565b600080600b60009054906101000a900473ffffffffffffffffffffffffffffffffffffffff1673ffffffffffffffffffffffffffffffffffffffff166340a7bb108a8a8a8a8a8a8a6040518863ffffffff1660e01b81526004016109fd9796959493929190612cd1565b604080518083038186803b158015610a1457600080fd5b505afa158015610a28573d6000803e3d6000fd5b505050506040513d601f19601f82011682018060405250810190610a4c91906125d1565b9150915097509795505050505050565b610a7783838360405180602001604052806000815250610cf1565b505050565b600b60009054906101000a900473ffffffffffffffffffffffffffffffffffffffff1681565b6000806003600084815260200190815260200160002060009054906101000a900473ffffffffffffffffffffffffffffffffffffffff169050600073ffffffffffffffffffffffffffffffffffffffff168173ffffffffffffffffffffffffffffffffffffffff161415610b4b576040517f08c379a0000000000000000000000000000000000000000000000000000000008152600401610b4290612c71565b60405180910390fd5b80915050919050565b60008073ffffffffffffffffffffffffffffffffffffffff168273ffffffffffffffffffffffffffffffffffffffff161415610bc5576040517f08c379a0000000000000000000000000000000000000000000000000000000008152600401610bbc90612bd1565b60405180910390fd5b600460008373ffffffffffffffffffffffffffffffffffffffff1673ffffffffffffffffffffffffffffffffffffffff168152602001908152602001600020549050919050565b610c146115f0565b610c1e600061166e565b565b60008060009054906101000a900473ffffffffffffffffffffffffffffffffffffffff16905090565b606060028054610c589061310c565b80601f0160208091040260200160405190810160405280929190818152602001828054610c849061310c565b8015610cd15780601f10610ca657610100808354040283529160200191610cd1565b820191906000526020600020905b815481529060010190602001808311610cb457829003601f168201915b5050505050905090565b610ced610ce6611233565b8383611732565b5050565b610d02610cfc611233565b836112f4565b610d41576040517f08c379a0000000000000000000000000000000000000000000000000000000008152600401610d3890612cb1565b60405180910390fd5b610d4d8484848461189f565b50505050565b610d5c81610aa2565b73ffffffffffffffffffffffffffffffffffffffff163373ffffffffffffffffffffffffffffffffffffffff1614610dc9576040517f08c379a0000000000000000000000000000000000000000000000000000000008152600401610dc090612bf1565b60405180910390fd5b610dd2816118fb565b600160076000828254610de59190612fb8565b9250508190555060003382604051602001610e01929190612a50565b6040516020818303038152906040529050600060019050600081600a54604051602001610e2f9291906129bd565b60405160208183030381529060405290506000600b60009054906101000a900473ffffffffffffffffffffffffffffffffffffffff1673ffffffffffffffffffffffffffffffffffffffff166340a7bb108930876000876040518663ffffffff1660e01b8152600401610ea6959493929190612d36565b604080518083038186803b158015610ebd57600080fd5b505afa158015610ed1573d6000803e3d6000fd5b505050506040513d601f19601f82011682018060405250810190610ef591906125d1565b50905080341015610f3b576040517f08c379a0000000000000000000000000000000000000000000000000000000008152600401610f3290612b51565b60405180910390fd5b600b60009054906101000a900473ffffffffffffffffffffffffffffffffffffffff1673ffffffffffffffffffffffffffffffffffffffff1663c5803100348a8a8a893360008a6040518963ffffffff1660e01b8152600401610fa49796959493929190612ddc565b6000604051808303818588803b158015610fbd57600080fd5b505af1158015610fd1573d6000803e3d6000fd5b50505050505050505050505050565b6060610feb826111e8565b6000610ff5611a18565b905060008151116110155760405180602001604052806000815250611040565b8061101f84611a2f565b604051602001611030929190612999565b6040516020818303038152906040525b915050919050565b6000600660008473ffffffffffffffffffffffffffffffffffffffff1673ffffffffffffffffffffffffffffffffffffffff16815260200190815260200160002060008373ffffffffffffffffffffffffffffffffffffffff1673ffffffffffffffffffffffffffffffffffffffff16815260200190815260200160002060009054906101000a900460ff16905092915050565b6110e46115f0565b600073ffffffffffffffffffffffffffffffffffffffff168173ffffffffffffffffffffffffffffffffffffffff161415611154576040517f08c379a000000000000000000000000000000000000000000000000000000000815260040161114b90612b11565b60405180910390fd5b61115d8161166e565b50565b61117a828260405180602001604052806000815250611b90565b5050565b60007f01ffc9a7000000000000000000000000000000000000000000000000000000007bffffffffffffffffffffffffffffffffffffffffffffffffffffffff1916827bffffffffffffffffffffffffffffffffffffffffffffffffffffffff1916149050919050565b6111f181611beb565b611230576040517f08c379a000000000000000000000000000000000000000000000000000000000815260040161122790612c71565b60405180910390fd5b50565b600033905090565b816005600083815260200190815260200160002060006101000a81548173ffffffffffffffffffffffffffffffffffffffff021916908373ffffffffffffffffffffffffffffffffffffffff160217905550808273ffffffffffffffffffffffffffffffffffffffff166112ae83610aa2565b73ffffffffffffffffffffffffffffffffffffffff167f8c5be1e5ebec7d5bd14f71427d1e84f3dd0314c0f7b2291e5b200ac8c7c3b92560405160405180910390a45050565b60008061130083610aa2565b90508073ffffffffffffffffffffffffffffffffffffffff168473ffffffffffffffffffffffffffffffffffffffff16148061134257506113418185611048565b5b8061138057508373ffffffffffffffffffffffffffffffffffffffff1661136884610740565b73ffffffffffffffffffffffffffffffffffffffff16145b91505092915050565b8273ffffffffffffffffffffffffffffffffffffffff166113a982610aa2565b73ffffffffffffffffffffffffffffffffffffffff16146113ff576040517f08c379a00000000000000000000000000000000000000000000000000000000081526004016113f690612b31565b60405180910390fd5b600073ffffffffffffffffffffffffffffffffffffffff168273ffffffffffffffffffffffffffffffffffffffff16141561146f576040517f08c379a000000000000000000000000000000000000000000000000000000000815260040161146690612b91565b60405180910390fd5b61147a838383611c57565b61148560008261123b565b6001600460008573ffffffffffffffffffffffffffffffffffffffff1673ffffffffffffffffffffffffffffffffffffffff16815260200190815260200160002060008282546114d59190612fb8565b925050819055506001600460008473ffffffffffffffffffffffffffffffffffffffff1673ffffffffffffffffffffffffffffffffffffffff168152602001908152602001600020600082825461152c9190612f31565b92505081905550816003600083815260200190815260200160002060006101000a81548173ffffffffffffffffffffffffffffffffffffffff021916908373ffffffffffffffffffffffffffffffffffffffff160217905550808273ffffffffffffffffffffffffffffffffffffffff168473ffffffffffffffffffffffffffffffffffffffff167fddf252ad1be2c89b69c2b068fc378daa952ba7f163c4a11628f55a4df523b3ef60405160405180910390a46115eb838383611c5c565b505050565b6115f8611233565b73ffffffffffffffffffffffffffffffffffffffff16611616610c20565b73ffffffffffffffffffffffffffffffffffffffff161461166c576040517f08c379a000000000000000000000000000000000000000000000000000000000815260040161166390612c51565b60405180910390fd5b565b60008060009054906101000a900473ffffffffffffffffffffffffffffffffffffffff169050816000806101000a81548173ffffffffffffffffffffffffffffffffffffffff021916908373ffffffffffffffffffffffffffffffffffffffff1602179055508173ffffffffffffffffffffffffffffffffffffffff168173ffffffffffffffffffffffffffffffffffffffff167f8be0079c531659141344cd1fd0a4f28419497f9722a3daafe3b4186f6b6457e060405160405180910390a35050565b8173ffffffffffffffffffffffffffffffffffffffff168373ffffffffffffffffffffffffffffffffffffffff1614156117a1576040517f08c379a000000000000000000000000000000000000000000000000000000000815260040161179890612bb1565b60405180910390fd5b80600660008573ffffffffffffffffffffffffffffffffffffffff1673ffffffffffffffffffffffffffffffffffffffff16815260200190815260200160002060008473ffffffffffffffffffffffffffffffffffffffff1673ffffffffffffffffffffffffffffffffffffffff16815260200190815260200160002060006101000a81548160ff0219169083151502179055508173ffffffffffffffffffffffffffffffffffffffff168373ffffffffffffffffffffffffffffffffffffffff167f17307eab39ab6107e8899845ad3d59bd9653f200f220920489ca2b5937696c31836040516118929190612a79565b60405180910390a3505050565b6118aa848484611389565b6118b684848484611c61565b6118f5576040517f08c379a00000000000000000000000000000000000000000000000000000000081526004016118ec90612af1565b60405180910390fd5b50505050565b600061190682610aa2565b905061191481600084611c57565b61191f60008361123b565b6001600460008373ffffffffffffffffffffffffffffffffffffffff1673ffffffffffffffffffffffffffffffffffffffff168152602001908152602001600020600082825461196f9190612fb8565b925050819055506003600083815260200190815260200160002060006101000a81549073ffffffffffffffffffffffffffffffffffffffff021916905581600073ffffffffffffffffffffffffffffffffffffffff168273ffffffffffffffffffffffffffffffffffffffff167fddf252ad1be2c89b69c2b068fc378daa952ba7f163c4a11628f55a4df523b3ef60405160405180910390a4611a1481600084611c5c565b5050565b606060405180602001604052806000815250905090565b60606000821415611a77576040518060400160405280600181526020017f30000000000000000000000000000000000000000000000000000000000000008152509050611b8b565b600082905060005b60008214611aa9578080611a929061316f565b915050600a82611aa29190612f87565b9150611a7f565b60008167ffffffffffffffff811115611ac557611ac46132c1565b5b6040519080825280601f01601f191660200182016040528015611af75781602001600182028036833780820191505090505b5090505b60008514611b8457600182611b109190612fb8565b9150600a85611b1f91906131d4565b6030611b2b9190612f31565b60f81b818381518110611b4157611b40613292565b5b60200101907effffffffffffffffffffffffffffffffffffffffffffffffffffffffffffff1916908160001a905350600a85611b7d9190612f87565b9450611afb565b8093505050505b919050565b611b9a8383611df8565b611ba76000848484611c61565b611be6576040517f08c379a0000000000000000000000000000000000000000000000000000000008152600401611bdd90612af1565b60405180910390fd5b505050565b60008073ffffffffffffffffffffffffffffffffffffffff166003600084815260200190815260200160002060009054906101000a900473ffffffffffffffffffffffffffffffffffffffff1673ffffffffffffffffffffffffffffffffffffffff1614159050919050565b505050565b505050565b6000611c828473ffffffffffffffffffffffffffffffffffffffff16611fd2565b15611deb578373ffffffffffffffffffffffffffffffffffffffff1663150b7a02611cab611233565b8786866040518563ffffffff1660e01b8152600401611ccd9493929190612a04565b602060405180830381600087803b158015611ce757600080fd5b505af1925050508015611d1857506040513d601f19601f82011682018060405250810190611d1591906123a8565b60015b611d9b573d8060008114611d48576040519150601f19603f3d011682016040523d82523d6000602084013e611d4d565b606091505b50600081511415611d93576040517f08c379a0000000000000000000000000000000000000000000000000000000008152600401611d8a90612af1565b60405180910390fd5b805181602001fd5b63150b7a0260e01b7bffffffffffffffffffffffffffffffffffffffffffffffffffffffff1916817bffffffffffffffffffffffffffffffffffffffffffffffffffffffff191614915050611df0565b600190505b949350505050565b600073ffffffffffffffffffffffffffffffffffffffff168273ffffffffffffffffffffffffffffffffffffffff161415611e68576040517f08c379a0000000000000000000000000000000000000000000000000000000008152600401611e5f90612c31565b60405180910390fd5b611e7181611beb565b15611eb1576040517f08c379a0000000000000000000000000000000000000000000000000000000008152600401611ea890612b71565b60405180910390fd5b611ebd60008383611c57565b6001600460008473ffffffffffffffffffffffffffffffffffffffff1673ffffffffffffffffffffffffffffffffffffffff1681526020019081526020016000206000828254611f0d9190612f31565b92505081905550816003600083815260200190815260200160002060006101000a81548173ffffffffffffffffffffffffffffffffffffffff021916908373ffffffffffffffffffffffffffffffffffffffff160217905550808273ffffffffffffffffffffffffffffffffffffffff16600073ffffffffffffffffffffffffffffffffffffffff167fddf252ad1be2c89b69c2b068fc378daa952ba7f163c4a11628f55a4df523b3ef60405160405180910390a4611fce60008383611c5c565b5050565b6000808273ffffffffffffffffffffffffffffffffffffffff163b119050919050565b600061200861200384612ebd565b612e98565b905082815260208101848484011115612024576120236132ff565b5b61202f8482856130ca565b509392505050565b60008135905061204681613712565b92915050565b60008151905061205b81613729565b92915050565b60008135905061207081613740565b92915050565b60008135905061208581613757565b92915050565b60008151905061209a81613757565b92915050565b60008083601f8401126120b6576120b56132f5565b5b8235905067ffffffffffffffff8111156120d3576120d26132f0565b5b6020830191508360018202830111156120ef576120ee6132fa565b5b9250929050565b600082601f83011261210b5761210a6132f5565b5b813561211b848260208601611ff5565b91505092915050565b6000813590506121338161376e565b92915050565b60008135905061214881613785565b92915050565b60008151905061215d81613785565b92915050565b6000813590506121728161379c565b92915050565b60006020828403121561218e5761218d613309565b5b600061219c84828501612037565b91505092915050565b600080604083850312156121bc576121bb613309565b5b60006121ca8582860161204c565b92505060206121db8582860161214e565b9150509250929050565b600080604083850312156121fc576121fb613309565b5b600061220a85828601612037565b925050602061221b85828601612037565b9150509250929050565b60008060006060848603121561223e5761223d613309565b5b600061224c86828701612037565b935050602061225d86828701612037565b925050604061226e86828701612139565b9150509250925092565b6000806000806080858703121561229257612291613309565b5b60006122a087828801612037565b94505060206122b187828801612037565b93505060406122c287828801612139565b925050606085013567ffffffffffffffff8111156122e3576122e2613304565b5b6122ef878288016120f6565b91505092959194509250565b6000806040838503121561231257612311613309565b5b600061232085828601612037565b925050602061233185828601612061565b9150509250929050565b6000806040838503121561235257612351613309565b5b600061236085828601612037565b925050602061237185828601612139565b9150509250929050565b60006020828403121561239157612390613309565b5b600061239f84828501612076565b91505092915050565b6000602082840312156123be576123bd613309565b5b60006123cc8482850161208b565b91505092915050565b600080600080600080600060a0888a0312156123f4576123f3613309565b5b60006124028a828b01612124565b97505060206124138a828b01612037565b965050604088013567ffffffffffffffff81111561243457612433613304565b5b6124408a828b016120a0565b955095505060606124538a828b01612061565b935050608088013567ffffffffffffffff81111561247457612473613304565b5b6124808a828b016120a0565b925092505092959891949750929550565b600080600080606085870312156124ab576124aa613309565b5b60006124b987828801612124565b945050602085013567ffffffffffffffff8111156124da576124d9613304565b5b6124e6878288016120a0565b935093505060406124f987828801612139565b91505092959194509250565b6000806000806080858703121561251f5761251e613309565b5b600061252d87828801612124565b945050602085013567ffffffffffffffff81111561254e5761254d613304565b5b61255a878288016120f6565b935050604061256b87828801612163565b925050606085013567ffffffffffffffff81111561258c5761258b613304565b5b612598878288016120f6565b91505092959194509250565b6000602082840312156125ba576125b9613309565b5b60006125c884828501612139565b91505092915050565b600080604083850312156125e8576125e7613309565b5b60006125f68582860161214e565b92505060206126078582860161214e565b9150509250929050565b61261a81612ffe565b82525050565b61262981612fec565b82525050565b61263881613010565b82525050565b600061264a8385612f04565b93506126578385846130ca565b6126608361330e565b840190509392505050565b600061267682612eee565b6126808185612f04565b93506126908185602086016130d9565b6126998161330e565b840191505092915050565b6126ad81613094565b82525050565b60006126be82612ef9565b6126c88185612f15565b93506126d88185602086016130d9565b6126e18161330e565b840191505092915050565b60006126f782612ef9565b6127018185612f26565b93506127118185602086016130d9565b80840191505092915050565b600061272a600e83612f15565b91506127358261332c565b602082019050919050565b600061274d603283612f15565b915061275882613355565b604082019050919050565b6000612770602683612f15565b915061277b826133a4565b604082019050919050565b6000612793602583612f15565b915061279e826133f3565b604082019050919050565b60006127b6602a83612f15565b91506127c182613442565b604082019050919050565b60006127d9601c83612f15565b91506127e482613491565b602082019050919050565b60006127fc602483612f15565b9150612807826134ba565b604082019050919050565b600061281f601983612f15565b915061282a82613509565b602082019050919050565b6000612842602983612f15565b915061284d82613532565b604082019050919050565b6000612865600d83612f15565b915061287082613581565b602082019050919050565b6000612888603e83612f15565b9150612893826135aa565b604082019050919050565b60006128ab602083612f15565b91506128b6826135f9565b602082019050919050565b60006128ce602083612f15565b91506128d982613622565b602082019050919050565b60006128f1601883612f15565b91506128fc8261364b565b602082019050919050565b6000612914602183612f15565b915061291f82613674565b604082019050919050565b6000612937602e83612f15565b9150612942826136c3565b604082019050919050565b61295681613048565b82525050565b61296d61296882613048565b6131b8565b82525050565b61297c81613076565b82525050565b61299361298e82613076565b6131ca565b82525050565b60006129a582856126ec565b91506129b182846126ec565b91508190509392505050565b60006129c9828561295c565b6002820191506129d98284612982565b6020820191508190509392505050565b60006020820190506129fe6000830184612620565b92915050565b6000608082019050612a196000830187612620565b612a266020830186612620565b612a336040830185612973565b8181036060830152612a45818461266b565b905095945050505050565b6000604082019050612a656000830185612620565b612a726020830184612973565b9392505050565b6000602082019050612a8e600083018461262f565b92915050565b6000602082019050612aa960008301846126a4565b92915050565b60006020820190508181036000830152612ac981846126b3565b905092915050565b60006020820190508181036000830152612aea8161271d565b9050919050565b60006020820190508181036000830152612b0a81612740565b9050919050565b60006020820190508181036000830152612b2a81612763565b9050919050565b60006020820190508181036000830152612b4a81612786565b9050919050565b60006020820190508181036000830152612b6a816127a9565b9050919050565b60006020820190508181036000830152612b8a816127cc565b9050919050565b60006020820190508181036000830152612baa816127ef565b9050919050565b60006020820190508181036000830152612bca81612812565b9050919050565b60006020820190508181036000830152612bea81612835565b9050919050565b60006020820190508181036000830152612c0a81612858565b9050919050565b60006020820190508181036000830152612c2a8161287b565b9050919050565b60006020820190508181036000830152612c4a8161289e565b9050919050565b60006020820190508181036000830152612c6a816128c1565b9050919050565b60006020820190508181036000830152612c8a816128e4565b9050919050565b60006020820190508181036000830152612caa81612907565b9050919050565b60006020820190508181036000830152612cca8161292a565b9050919050565b600060a082019050612ce6600083018a61294d565b612cf36020830189612620565b8181036040830152612d0681878961263e565b9050612d15606083018661262f565b8181036080830152612d2881848661263e565b905098975050505050505050565b600060a082019050612d4b600083018861294d565b612d586020830187612620565b8181036040830152612d6a818661266b565b9050612d79606083018561262f565b8181036080830152612d8b818461266b565b90509695505050505050565b6000608082019050612dac600083018761294d565b612db96020830186612620565b612dc66040830185612973565b612dd36060830184612973565b95945050505050565b600060c082019050612df1600083018a61294d565b8181036020830152612e0481888a61263e565b90508181036040830152612e18818761266b565b9050612e276060830186612611565b612e346080830185612620565b81810360a0830152612e46818461266b565b905098975050505050505050565b6000602082019050612e696000830184612973565b92915050565b6000604082019050612e846000830185612973565b612e916020830184612973565b9392505050565b6000612ea2612eb3565b9050612eae828261313e565b919050565b6000604051905090565b600067ffffffffffffffff821115612ed857612ed76132c1565b5b612ee18261330e565b9050602081019050919050565b600081519050919050565b600081519050919050565b600082825260208201905092915050565b600082825260208201905092915050565b600081905092915050565b6000612f3c82613076565b9150612f4783613076565b9250827fffffffffffffffffffffffffffffffffffffffffffffffffffffffffffffffff03821115612f7c57612f7b613205565b5b828201905092915050565b6000612f9282613076565b9150612f9d83613076565b925082612fad57612fac613234565b5b828204905092915050565b6000612fc382613076565b9150612fce83613076565b925082821015612fe157612fe0613205565b5b828203905092915050565b6000612ff782613056565b9050919050565b600061300982613056565b9050919050565b60008115159050919050565b60007fffffffff0000000000000000000000000000000000000000000000000000000082169050919050565b600061ffff82169050919050565b600073ffffffffffffffffffffffffffffffffffffffff82169050919050565b6000819050919050565b600067ffffffffffffffff82169050919050565b600061309f826130a6565b9050919050565b60006130b1826130b8565b9050919050565b60006130c382613056565b9050919050565b82818337600083830152505050565b60005b838110156130f75780820151818401526020810190506130dc565b83811115613106576000848401525b50505050565b6000600282049050600182168061312457607f821691505b6020821081141561313857613137613263565b5b50919050565b6131478261330e565b810181811067ffffffffffffffff82111715613166576131656132c1565b5b80604052505050565b600061317a82613076565b91507fffffffffffffffffffffffffffffffffffffffffffffffffffffffffffffffff8214156131ad576131ac613205565b5b600182019050919050565b60006131c38261331f565b9050919050565b6000819050919050565b60006131df82613076565b91506131ea83613076565b9250826131fa576131f9613234565b5b828206905092915050565b7f4e487b7100000000000000000000000000000000000000000000000000000000600052601160045260246000fd5b7f4e487b7100000000000000000000000000000000000000000000000000000000600052601260045260246000fd5b7f4e487b7100000000000000000000000000000000000000000000000000000000600052602260045260246000fd5b7f4e487b7100000000000000000000000000000000000000000000000000000000600052603260045260246000fd5b7f4e487b7100000000000000000000000000000000000000000000000000000000600052604160045260246000fd5b600080fd5b600080fd5b600080fd5b600080fd5b600080fd5b600080fd5b6000601f19601f8301169050919050565b60008160f01b9050919050565b7f4578636565647320737570706c79000000000000000000000000000000000000600082015250565b7f4552433732313a207472616e7366657220746f206e6f6e20455243373231526560008201527f63656976657220696d706c656d656e7465720000000000000000000000000000602082015250565b7f4f776e61626c653a206e6577206f776e657220697320746865207a65726f206160008201527f6464726573730000000000000000000000000000000000000000000000000000602082015250565b7f4552433732313a207472616e736665722066726f6d20696e636f72726563742060008201527f6f776e6572000000000000000000000000000000000000000000000000000000602082015250565b7f4d7573742073656e6420656e6f7567682076616c756520746f20636f7665722060008201527f6d65737361676546656500000000000000000000000000000000000000000000602082015250565b7f4552433732313a20746f6b656e20616c7265616479206d696e74656400000000600082015250565b7f4552433732313a207472616e7366657220746f20746865207a65726f2061646460008201527f7265737300000000000000000000000000000000000000000000000000000000602082015250565b7f4552433732313a20617070726f766520746f2063616c6c657200000000000000600082015250565b7f4552433732313a2061646472657373207a65726f206973206e6f74206120766160008201527f6c6964206f776e65720000000000000000000000000000000000000000000000602082015250565b7f4e6f7420746865206f776e657200000000000000000000000000000000000000600082015250565b7f4552433732313a20617070726f76652063616c6c6572206973206e6f7420746f60008201527f6b656e206f776e6572206e6f7220617070726f76656420666f7220616c6c0000602082015250565b7f4552433732313a206d696e7420746f20746865207a65726f2061646472657373600082015250565b7f4f776e61626c653a2063616c6c6572206973206e6f7420746865206f776e6572600082015250565b7f4552433732313a20696e76616c696420746f6b656e2049440000000000000000600082015250565b7f4552433732313a20617070726f76616c20746f2063757272656e74206f776e6560008201527f7200000000000000000000000000000000000000000000000000000000000000602082015250565b7f4552433732313a2063616c6c6572206973206e6f7420746f6b656e206f776e6560008201527f72206e6f7220617070726f766564000000000000000000000000000000000000602082015250565b61371b81612fec565b811461372657600080fd5b50565b61373281612ffe565b811461373d57600080fd5b50565b61374981613010565b811461375457600080fd5b50565b6137608161301c565b811461376b57600080fd5b50565b61377781613048565b811461378257600080fd5b50565b61378e81613076565b811461379957600080fd5b50565b6137a581613080565b81146137b057600080fd5b5056fea2646970667358221220b91c381e9dce2025b04d821c04d10ce07395616d0db453388a1605311b7aa52164736f6c63430008070033",
  "linkReferences": {},
  "deployedLinkReferences": {}
}